S02B00002F686F6D652F7365736761726F2F446F63756D656E74732F4D43555870726573736F5F32352E362E98
S3150000000000300020F900000059010000892B000093
S3150000001000000000000000000000000000000000DA
S315000000200000000000000000000000005D0100006C
S3150000003000000000000000005F01000061010000F8
S31500000040650100006D010000750100007D010000E2
S31500000050850100008D010000950100009D01000052
S31500000060A5010000AD010000B5010000BD010000C2
S31500000070C5010000CD010000D5010000DD01000032
S31500000080E5010000ED010000F5010000FD010000A2
S31500000090050200000D020000150200001D0200000E
S315000000A0250200002D020000350200003D0200007E
S315000000B0450200004D0200005502000039170000FD
S315000000C02C33000080F0FF1F0400000084F0FF1FA7
S315000000D02800000010B5002302E010C810C1043348
S315000000E09342FAD310BD002302E0002204C0043379
S315000000F08B42FAD37047FFFF10B572B6104B002241
S315000001001A60104B07E0186859681C000C349A688E
S31500000110FFF7E0FF23000C4A9342F4D306E0186889
S315000001201C0008345968FFF7DEFF2300074A934294
S31500000130F5D3074B074A136062B601F0EBFDFEE705
S3150000014000810440C0000000CC000000D400000084
S315000001500000000008ED00E0FEE7FEE7FEE7FEE730
S31500000160FEE7FEE710B5FFF7FCFF10BD10B5FFF781
S31500000170F8FF10BD10B5FFF7F4FF10BD10B5FFF77F
S31500000180F0FF10BD10B5FFF7ECFF10BD10B5FFF77F
S31500000190E8FF10BD10B5FFF7E4FF10BD10B5FFF77F
S315000001A0E0FF10BD10B5FFF7DCFF10BD10B5FFF77F
S315000001B0D8FF10BD10B5FFF7D4FF10BD10B5FFF77F
S315000001C0D0FF10BD10B500F0D5F910BD10B500F088
S315000001D0E3F910BD10B500F0F1F910BD10B5FFF749
S315000001E0C0FF10BD10B5FFF7BCFF10BD10B5FFF77F
S315000001F0B8FF10BD10B5FFF7B4FF10BD10B5FFF77F
S31500000200B0FF10BD10B5FFF7ACFF10BD10B5FFF77E
S31500000210A8FF10BD10B5FFF7A4FF10BD10B5FFF77E
S31500000220A0FF10BD10B5FFF79CFF10BD10B5FFF77E
S3150000023098FF10BD10B5FFF794FF10BD10B5FFF77E
S3150000024090FF10BD10B5FFF78CFF10BD10B5FFF77E
S3150000025088FF10BD10B5FFF784FF10BD10B5FFF77E
S3150000026080FF10BDFFFFFFFFFFFFFFFFFFFFFFFF48
S31500000270FFFFFFFFFFFFFFFFFFFFFFFFFFFFFFFF88
S31500000280FFFFFFFFFFFFFFFFFFFFFFFFFFFFFFFF78
S31500000290FFFFFFFFFFFFFFFFFFFFFFFFFFFFFFFF68
S315000002A0FFFFFFFFFFFFFFFFFFFFFFFFFFFFFFFF58
S315000002B0FFFFFFFFFFFFFFFFFFFFFFFFFFFFFFFF48
S315000002C0FFFFFFFFFFFFFFFFFFFFFFFFFFFFFFFF38
S315000002D0FFFFFFFFFFFFFFFFFFFFFFFFFFFFFFFF28
S315000002E0FFFFFFFFFFFFFFFFFFFFFFFFFFFFFFFF18
S315000002F0FFFFFFFFFFFFFFFFFFFFFFFFFFFFFFFF08
S31500000300FFFFFFFFFFFFFFFFFFFFFFFFFFFFFFFFF7
S31500000310FFFFFFFFFFFFFFFFFFFFFFFFFFFFFFFFE7
S31500000320FFFFFFFFFFFFFFFFFFFFFFFFFFFFFFFFD7
S31500000330FFFFFFFFFFFFFFFFFFFFFFFFFFFFFFFFC7
S31500000340FFFFFFFFFFFFFFFFFFFFFFFFFFFFFFFFB7
S31500000350FFFFFFFFFFFFFFFFFFFFFFFFFFFFFFFFA7
S31500000360FFFFFFFFFFFFFFFFFFFFFFFFFFFFFFFF97
S31500000370FFFFFFFFFFFFFFFFFFFFFFFFFFFFFFFF87
S31500000380FFFFFFFFFFFFFFFFFFFFFFFFFFFFFFFF77
S31500000390FFFFFFFFFFFFFFFFFFFFFFFFFFFFFFFF67
S315000003A0FFFFFFFFFFFFFFFFFFFFFFFFFFFFFFFF57
S315000003B0FFFFFFFFFFFFFFFFFFFFFFFFFFFFFFFF47
S315000003C0FFFFFFFFFFFFFFFFFFFFFFFFFFFFFFFF37
S315000003D0FFFFFFFFFFFFFFFFFFFFFFFFFFFFFFFF27
S315000003E0FFFFFFFFFFFFFFFFFFFFFFFFFFFFFFFF17
S315000003F0FFFFFFFFFFFFFFFFFFFFFFFFFFFFFFFF07
S31500000400FFFFFFFFFFFFFFFFFFFFFFFFFEFFFFFFF7
S3150000041080B584B000AF0200BB1D1A80BB1D1B88CF
S31500000420002B02D1BB1D01221A80BB1D1B8819009F
S31500000430A023980302F040FC0300FB60FB68012B3D
S3150000044001D80223FB60FA6880235B029A4202D934
S3150000045080235B02FB60FB689BB2013B9AB2034BB5
S315000004609A60C046BD4604B080BDC04600A00340A9
S3150000047080B500AF1B4A1C4BD3581A498022D204C0
S315000004801343194A8B50174A184BD358184A13402E
S315000004901449802252041343144A8B50114A154BB7
S315000004A0D35810498022D2001343124A8B50124B64
S315000004B0C02292009A60114B00221A600F4B002254
S315000004C05A60FA23DB001800FFF7A2FF0B4B282225
S315000004D0DA600A4B00221A61084B0B221A60C046EA
S315000004E0BD4680BD007004403C10000004100000B2
S315000004F0FFFFFFFC3810000000A0044000A00340EE
S3150000050080B500AF044B9B6801335B089AB2024B7F
S315000005101A61C046BD4680BD00A0034080B500AF4D
S31500000520024B00221A61C046BD4680BD00A00340B2
S3150000053090B585B000AF0200BB1D1A800C4B1B693D
S31500000540002B01D0012200E000220F243B191A7073
S31500000550BB1D1B881800FFF75BFF3B191B78002BA0
S3150000056001D0FFF7CDFFC046BD4605B090BDC046E1
S3150000057000A0034080B500AF044B1A68044B1B680B
S31500000580044819009047C046BD4680BD88F0FF1F4D
S3150000059084F0FF1F00A0064080B500AF044B1A6828
S315000005A0044B5B68044819009047C046BD4680BDB1
S315000005B098F0FF1F8CF0FF1F00B0064080B500AF1B
S315000005C0044B1A68044B9B68044819009047C046C0
S315000005D0BD4680BD98F0FF1F8CF0FF1F00C006408F
S315000005E080B500AF134A144BD358124980221343E7
S315000005F0114A8B500F4A114BD3580E4980221201D3
S3150000060013430E4A8B500E4B802292009A620C4B7B
S3150000061080229200DA620B4B00229A70094B02226A
S31500000620DA70084B1A225A70064B80229A70C0461E
S31500000630BD4680BD00700440341000003810000034
S3150000064000B004400070064080B500AF054B9B78B3
S31500000650DBB2044A30218B43DBB29370C046BD4601
S3150000066080BDC0460070064080B582B000AF0E4B1C
S315000006707B6009E07B68013B7B607B68002B03D1D4
S31500000680FFF7E2FF04230AE0084BDB78DBB21A002F
S3150000069002231340EED0054B0222DA700023180025
S315000006A0BD4602B080BDC046400D03000070064046
S315000006B080B582B000AF64237B6007E07B68013BB6
S315000006C07B607B68002B01DC032307E0054BDB78AE
S315000006D0DBB21A0020231340F0D100231800BD46D8
S315000006E002B080BD0070064080B582B000AF020047
S315000006F0FB1D1A70BB1D0A1C1A70204B9B78DBB2BF
S315000007001E4A10210B43DBB293701C4B9B78DBB265
S315000007101A4A20210B43DBB29370FB1D1B78DB18B2
S31500000720DAB2BB1D1B78002B01D0012300E00023A9
S3150000073012491343DBB20B71FFF796FF031E01D07C
S31500000740042316E00D4BDB78DBB21A0010231340AE
S3150000075003D0FFF779FF02230BE0084BDB78DBB20F
S315000007601A000123134003D0FFF76EFF012300E0B8
S3150000077000231800BD4602B080BDC046007006408A
S3150000078080B582B000AF0200FB1D1A700C4AFB1D3B
S315000007901B781371FFF768FF031E01D004230BE0DB
S315000007A0074BDB78DBB21A000123134003D0FFF7B7
S315000007B04BFF012300E000231800BD4602B080BDB8
S315000007C00070064080B586B000AFBA607B600F232C
S315000007D0FB18021C1A700E23FB180A1C1A703B6ABF
S315000007E000221A60FFF764FF03007B617B69002B20
S315000007F001D07B6982E00F23FB181B7800211800CB
S31500000800FFF772FF03007B617B69002B01D07B69D8
S3150000081074E00E23FB181B781800FFF7B1FF0300E6
S315000008207B617B69002B01D07B6967E0354B9B7848
S31500000830DBB2344A04210B43DBB293700F23FB185F
S315000008401B78DB18DBB22F4A01210B43DBB2137195
S31500000850FFF70AFF031E01D004234FE0294BDB7884
S31500000860DBB21A000123134003D0FFF7EDFE01238C
S3150000087044E0244B9B78DBB2224A18218B43DBB23F
S315000008809370BB68012B07D11E4B9B78DBB21D4AC8
S3150000089008210B43DBB293701A4B1B792AE0BB6825
S315000008A0012B07D1174B9B78DBB2164A08210B4365
S315000008B0DBB29370FFF7D8FE031E01D004231DE0C0
S315000008C0BB68012B07D10F4B9B78DBB20D4A202169
S315000008D08B43DBB293700B497B685A1C7A600A79AA
S315000008E0D2B21A70BB68013BBB603B6A1B685A1CDC
S315000008F03B6A1A60BB68002BD1DC00231800BD469A
S3150000090006B080BD0070064080B586B000AFBA6004
S315000009107B600F23FB18021C1A700E23FB180A1C9F
S315000009201A70FFF7C5FE03007B617B69002B01D0BF
S315000009307B6931E00F23FB181B7800211800FFF7B5
S31500000940D3FE03007B617B69002B01D07B6923E02A
S315000009500E23FB181B781800FFF712FF03007B61BC
S315000009607B69002B12D07B6916E07B685A1C7A6083
S315000009701B781800FFF704FF03007B617B69002BDF
S3150000098001D07B6908E0BB68013BBB60BB68002BFC
S31500000990EBDCFFF759FE00231800BD4606B080BD0C
S315000009A080B586B000AFB9607A600F23FB18021CD1
S315000009B01A70FFF77DFE03007B617B69002B01D077
S315000009C07B6924E00F23FB181B7800211800FFF732
S315000009D08BFE03007B617B69002B12D07B6916E0DE
S315000009E0BB685A1CBA601B781800FFF7C9FE0300E3
S315000009F07B617B69002B01D07B6908E07B68013B4A
S31500000A007B607B68002BEBDCFFF71EFE00231800E3
S31500000A10BD4606B080BD90B583B000AF04000800A7
S31500000A201100FB1D221C1A70BB1D021C1A707B1DB7
S31500000A300A1C1A707A1DBB1D1978FB1D1878130045
S31500000A400122FFF761FF03001800BD4603B090BD09
S31500000A5090B585B000AF040008001100FB1D221CF4
S31500000A601A70BB1D021C1A703B1D0A1C1A803B1D06
S31500000A701B881B0A9BB2DAB20C217B181A703B1D2D
S31500000A801B88DAB27B185A707A18BB1D1978FB1DC1
S31500000A90187813000222FFF737FF03001800BD463F
S31500000AA005B090BD90B587B002AF0200FB1D1A706D
S31500000AB00023BB600C243A19FB1D19780823FB1888
S31500000AC00093130002224020FFF77CFE031E0CD188
S31500000AD021007B181B781BB21B021AB27B185B78AD
S31500000AE01BB213431BB29BB200E0024B1800BD467B
S31500000AF005B090BDFFFF000080B500AFFE20FFF7F8
S31500000B00D1FF03001A00044B9A4201D1012300E0F1
S31500000B1000231800BD4680BD4954000080B500AFD3
S31500000B20044B1A0000214020FFF792FFC046BD4645
S31500000B3080BDC04627710000F0B587B000AF020047
S31500000B403960FB1D1A70FB1D1B78032B17D05CDC6C
S31500000B50012B02D0022B09D057E01723FB180122E4
S31500000B601A701623FB1802221A7011E01723FB18BD
S31500000B7003221A701623FB1804221A7008E01723A2
S31500000B80FB1805221A701623FB1806221A70C04697
S31500000B9014257C191623FB181B781800FFF782FF13
S31500000BA0030023801226BC191723FB181B78180094
S31500000BB0FFF778FF030023807B1900229A5E10213D
S31500000BC07B18D2101A80BB1900229A5E0E203B18A1
S31500000BD0D2101A807B1800229B5EDA003B681A60EE
S31500000BE03B1800229A5E13009B009B18DB001A003C
S31500000BF03B685A603B685B686421180002F0E6F8BF
S31500000C0003001A003B689A6000E0C046BD4607B084
S31500000C10F0BDFFFF80B582B000AF1D4A1D4BD35813
S31500000C201B498022120113431A4A8B5000237B6012
S31500000C3008E019497B689B00802252005A507B6865
S31500000C4001337B607B68032BF3DD144B5A69134B2E
S31500000C500F210A435A61114B0F225A6004237B600D
S31500000C6008E00D497B689B000422FF325A507B68DE
S31500000C7001337B607B68072BF3DD084B5A69074B12
S31500000C80F0218A435A61C046BD4602B080BDC046C7
S31500000C90007004403810000000B0044080F00F409F
S31500000CA080B582B000AF00237B602EE01B4B012194
S31500000CB07A6891400A009A6000233B6019E0174B5E
S31500000CC01B693A680432012191400A0013400DD194
S31500000CD0124B01217A6891400A005A60104A7B68DB
S31500000CE09B00D2183B68D3181B7812E03B6801338F
S31500000CF03B603B68032BE2DD084B01217A6891409B
S31500000D000A005A607B6801337B607B68032BCDDD6C
S31500000D1000231800BD4602B080BDC04680F00F40DB
S31500000D20A42F000080B500AF114A124BD3581049CA
S31500000D308022520413430F4A8B500D4A0E4BD35850
S31500000D400E4A13400A498022520413430A4A8B5022
S31500000D500B4B00221A600A4B00225A60084B094AC4
S31500000D609A60074B0C221A60C046BD4680BDC0463D
S31500000D70007004403C10000004100000FFFFFFFC60
S31500000D8000800340FFFF000080B584B000AF7860AC
S31500000D907A6813009B019B185B009B18642118005E
S31500000DA001F08AFF03000133FB6024E0FA68802328
S31500000DB01B029A4202D8FB689BB201E080231B0209
S31500000DC00A22BA181380104B5A680823FB181A8097
S31500000DD0C0460D4B5B689AB20823FB181B88D31AD2
S31500000DE09BB20A217A1812889A42F2D87B181B887D
S31500000DF0FA68D31AFB60FB68002BD7D1C046C04601
S31500000E00BD4604B080BDC0460080034080B584B0B6
S31500000E1000AF0200FB1D1A70BB1D0A1C1A70FB1DD9
S31500000E201B785BB21B015AB2BB1D1B785BB2134326
S31500000E305AB2114B1B785BB213435AB20F217B187F
S31500000E401A700C203B187A1812781A707B181B78C7
S31500000E5004221343DAB23B185A703B187A181278F8
S31500000E609A70064B1B78391803221800FFF798FD75
S31500000E70C046BD4604B080BD81F0FF1F80F0FF1F55
S31500000E8080B582B000AF0200FB1D1A70BB1D0A1CA4
S31500000E901A70FB1D1B781B09DAB2BB1D1B781900E3
S31500000EA01000FFF7B3FFFB1D1B780F221340DAB2C9
S31500000EB0BB1D1B7819001000FFF7A8FFC046BD46F2
S31500000EC002B080BD80B582B000AF0200FB1D1A7073
S31500000ED0FB1D1B7800211800FFF7D2FF3220FFF719
S31500000EE053FFC046BD4602B080BDFFFF80B582B04D
S31500000EF000AF134B1A78FB1D1A70124B27221A707B
S31500000F00FB1D012219002720FFF74AFD031E01D110
S31500000F10012310E00B4B3F221A70FB1D0122190022
S31500000F203F20FFF73DFD031E01D1012303E0054BE2
S31500000F3027221A7000231800BD4602B080BDC046A5
S31500000F4081F0FF1F80F0FF1F80B500AF024B1B78BA
S31500000F501800BD4680BDC04680F0FF1F80B500AFBB
S31500000F60FFF7E0FE174B1800FFF70EFF00210320E6
S31500000F70FFF74CFF144B1800FFF706FF0021032074
S31500000F80FFF744FF104B1800FFF7FEFE0021032079
S31500000F90FFF73CFF9620FFF7F7FE00210220FFF740
S31500000FA035FF9620FFF7F0FE2820FFF78BFF0C2079
S31500000FB0FFF788FF0620FFF785FF00F007F8C04619
S31500000FC0BD4680BD50C300009411000080B500AF3F
S31500000FD000210120FFF754FFFA23DB001800FFF77A
S31500000FE0D3FEC046BD4680BD80B582B000AF0200CC
S31500000FF0FB1D1A70BB1D0A1C1A70BB1D1B78012B2A
S3150000100002D9BB1D00221A70FB1D1B780F2B02D9BB
S31500001010FB1D00221A70BB1D1B78084AD25CFB1D03
S315000010201B78D318DBB2802252421343DBB218007E
S31500001030FFF748FFC046BD4602B080BDB42F000092
S3150000104080B582B000AF0200FB1D1A70FB1D1B7835
S3150000105001211800FFF714FF3220FFF795FEC04666
S31500001060BD4602B080BD80B582B000AF786006E0B4
S315000010707B685A1C7A601B781800FFF7E1FF7B68D3
S315000010801B78002BF4D1C046C046BD4602B080BDD9
S3150000109080B584B000AF0200FB1D1A70FB1D1B78E3
S315000010A0002B01D0082200E00022094B1A70084BE1
S315000010B01A780F217B181A70064B1B7879180122B3
S315000010C01800FFF76DFCC046BD4604B080BDC046A3
S315000010D081F0FF1F80F0FF1F80B582B000AF0200D5
S315000010E0FB1D1A70BB1D0A1C1A7001F0D1FDFB1DF9
S315000010F01B78180001F0AAFDBB1D1B78180001F033
S31500001100A5FD01F0CFFDC046BD4602B080BD80B54D
S3150000111000AF0F210920FFF7DFFF03210B20FFF7A8
S31500001120DBFF04210A20FFF7D7FF00210F20FFF77E
S31500001130D3FF01210C20FFF7CFFFC046BD4680BD7F
S3150000114080B582B000AF0200FB1D1A70BB1D0A1CE1
S315000011501A70FB1D1B780A21180001F0ADFD030073
S31500001160DBB219000120FFF7B7FFFB1D1B780A2130
S31500001170180001F027FE0B00DBB280225242134317
S31500001180DBB219000220FFF7A7FFBB1D1B780A215F
S31500001190180001F091FD0300DBB219000320FFF7F0
S315000011A09BFFBB1D1B780A21180001F00BFE0B00EC
S315000011B0DBB219000420FFF78FFFC046BD4602B020
S315000011C080BDFFFF80B582B000AF1B4B1A681B4B7A
S315000011D01B889B00D218BB1D12881A80164B1A68F2
S315000011E0164B1B889B00D2183B1D52881A80BB1DCC
S315000011F01B88002B02D1FFF791F908E0BB1D1B8865
S31500001200DB189BB21800FFF793F9FFF779F90C4B3F
S315000012103A1D12881A803B1D1B883C2B04D83B1DA7
S315000012201B889B089AB200E01E22064B1A80C04615
S31500001230BD4602B080BDC0469CF0FF1FA2F0FF1F56
S31500001240A4F0FF1FA6F0FF1F80B582B000AF786044
S3150000125008001100BB1C021C1A807B1C0A1C1A7099
S315000012607B68002B14D0BB1C1B88002B10D00A4BAC
S315000012707A681A60094BBA1C12881A80084B002239
S315000012801A80084B7A1C12781A70FFF79BFF00E051
S31500001290C046BD4602B080BD9CF0FF1FA0F0FF1FF8
S315000012A0A2F0FF1FA8F0FF1F80B500AF034B00227E
S315000012B01A60FFF733F9C046BD4680BD9CF0FF1F9C
S315000012C080B500AF1A4B1B68002B2BD0194B1B881F
S315000012D0002B0ED0174B1B88013B9AB2154B1A8078
S315000012E0144B1A88144B1B889A421DD1FFF716F926
S315000012F01AE0124B1B8801339AB2104B1A800F4B1F
S315000013001A880F4B1B889A4209D30E4B1B78002B69
S3150000131002D1FFF7C9FF08E0084B00221A80FFF749
S3150000132051FF02E0C04600E0C046BD4680BDC04653
S315000013309CF0FF1FA4F0FF1FA6F0FF1FA2F0FF1FE7
S31500001340A0F0FF1FA8F0FF1F80B582B000AF02001B
S31500001350FB1D1A70FB1D1B781A001F231A40044B35
S31500001360012191400A001A60C046BD4602B080BD08
S3150000137000E100E080B582B000AF0200FB1D1A70EC
S31500001380FB1D1B781A001F231340054901229A40B2
S31500001390C0235B00CA50C046BD4602B080BDC046F1
S315000013A000E100E090B583B000AF02003960FB1D9C
S315000013B01A70FB1D1B787F2B32D92F4AFB1D1B7819
S315000013C019000F230B40083B9B0806339B00D318DC
S315000013D004331B68FA1D1278110003220A40D2005A
S315000013E0FF2191400A00D2431A4011003B689B013D
S315000013F0FF221A40FB1D1B78180003230340DB0065
S315000014009A401D48FB1D1B781C000F232340083BF8
S315000014109B080A4306339B00C31804331A6027E06F
S31500001420164AFB1D1B785BB29B08C0339B009B587A
S31500001430FA1D1278110003220A40D200FF219140C2
S315000014400A00D2431A4011003B689B01FF221A4052
S31500001450FB1D1B78180003230340DB009A40074856
S31500001460FB1D1B785BB29B080A43C0339B001A50D6
S31500001470C046BD4603B090BD00ED00E000E100E0CF
S3150000148080B500AF1F4A204BD3581E498022D20098
S3150000149013431D4A8B501B4A1C4BD3581C4A1340FE
S315000014A018498022D2041343184A8B50194B002244
S315000014B0DA70184B0D229A72164B00221A70154BD1
S315000014C00D225A70134B00229A70124B0C22DA70BE
S315000014D00C4A114BD3580B498022920013430E4AF3
S315000014E08B500E4B802292009A600C4B8022920009
S315000014F05A60084B1F221A71064BDB79C046BD465F
S3150000150080BDC04600700440341000000410000086
S31500001510FFFFFFF300A006403810000000900440D3
S3150000152080B582B000AF0200FB1D1A70C046074BA3
S315000015301B79DBB25BB2002BF9DA044AFB1D1B7880
S31500001540D371C046BD4602B080BDC04600A006406D
S3150000155080B582B000AF78600EE07B681B780A2BFE
S3150000156002D10D20FFF7DCFF7B681B781800FFF720
S31500001570D7FF7B6801337B607B681B78002BECD13F
S31500001580C046C046BD4602B080BDFFFF80B582B0F2
S3150000159000AF0200FB1D1A700E4B1800FFF7D8FFB4
S315000015A0FB1D1B781B09DBB21A000F2313400A4AE6
S315000015B0D35C1800FFF7B4FFFB1D1B780F22134006
S315000015C0054AD35C1800FFF7ABFFC046BD4602B024
S315000015D080BDC046F43000001433000080B584B0EE
S315000015E000AF7860124AFA239900100001F064FBFC
S315000015F003001A000F4B013A5A600E4B05221A607F
S315000016000023FB6009E0C0460A4B1A6880235B0290
S315000016101340F9D0FB680133FB60FA687B689A4295
S31500001620F1DB044B00221A60C046BD4604B080BD03
S3150000163010FA3F0110E000E080B500AF0F4A104BF2
S31500001640D3580E498022D20013430D4A8B500D4BBE
S31500001650802252009A640B4B80225200DA640A4BB5
S315000016605A69094BC02109030A435A61064BC02235
S3150000167012035A60C046BD4680BDC0460070044095
S315000016803810000000A0044040F00F4080B582B042
S3150000169000AF0200FB1D1A70BB1D0A1C1A70FB1D51
S315000016A01B78002B04D00D4B8022D2029A6003E0F7
S315000016B00A4B8022D2025A60BB1D1B78002B04D035
S315000016C0064B802212039A6003E0044B8022120329
S315000016D05A60C046BD4602B080BDC04640F00F40CD
S315000016E080B500AF0F4A104BD3580E4980225201E5
S315000016F013430D4A8B500D4B0D4A1A610D4B5A6917
S315000017000C4B10218A435A6102211F20FFF74AFE23
S315000017101F20FFF72FFE1F20FFF716FEC046BD460F
S3150000172080BDC046007004403810000000C0044070
S3150000173003010A01C0F00F4080B500AF094B1A69DA
S3150000174080235B04134009D0064B1A69054B8021A0
S3150000175049040A431A61044B01221A70C046BD4669
S3150000176080BDC04600C00440A9F0FF1F80B582B00E
S3150000177000AF78600A00FB1C1A70FB1C1B780A215C
S31500001780180001F099FA0300DBB23033DAB27B6855
S315000017901A70FB1C1B780A21180001F013FB0B00C2
S315000017A0DAB27B6801333032D2B21A70C046BD4617
S315000017B002B080BD80B584B000AF78600F23FB18FF
S315000017C000221A700BE00F217B181B787A68D31859
S315000017D020221A707B181A787B1801321A700F2390
S315000017E0FB181B780F2BEED97B68103300221A707A
S315000017F0C046BD4604B080BD80B586B000AF7860F7
S31500001800396017217B1800221A703B68002B05DA15
S315000018103B685B423B607B1801221A703B68FA22E8
S315000018209100180001F0D2FA03003B613B68FA22EE
S315000018309100180001F0B0FB0B00FB603B69092B1F
S3150000184010DD3B690A21180001F0C0FA03000A21E5
S31500001850180001F0A1FB0B00DBB23033DAB27B6873
S315000018601A7009E01723FB181B78002B01D02D22D4
S3150000187000E020227B681A703B690A21180001F0FB
S315000018808BFB0B00DAB27B6801333032D2B21A70AE
S315000018907B6802332E221A70FB686421180001F05F
S315000018A095FA0300DAB27B6803333032D2B21A708B
S315000018B0FB680A21180001F089FA03000A211800C2
S315000018C001F06AFB0B00DAB27B6804333032D2B225
S315000018D01A70FB680A21180001F05EFB0B00DAB2F1
S315000018E07B6805333032D2B21A707B6806335622D3
S315000018F01A70C046BD4606B080BD90B587B000AF31
S31500001900F8607A600B203B180A1C1A7017217B18A6
S3150000191000221A701623FB183A1812781A707B6880
S31500001920002B05DA7B685B427B607B1801221A700C
S315000019307B680A21180001F02FFB0B00DAB216248F
S315000019403B1900215956CBB2013BD8B23B1918704E
S31500001950FB685B183032D2B21A707B680A21180015
S3150000196001F034FA03007B607B68002B08DD172248
S31500001970BB18BA1812781A703B191B787F2BD7D967
S315000019801723FB181B78002B0BD01622BB181B78CD
S315000019907F2B06D8BB181B785BB2FA68D3182D22AA
S315000019A01A70C046BD4607B090BD80B582B000AF84
S315000019B07860396000210020FFF716FB7B6818006D
S315000019C0FFF751FB01210020FFF70EFB3B681800D3
S315000019D0FFF749FBC046BD4602B080BD90B58FB04B
S315000019E000AFF860B960FB1D1A7024243B1918007B
S315000019F0FFF7E0FE1023FB181800FFF7DBFEFB687D
S31500001A001A793B1911001800FFF7B0FE3B192F2277
S31500001A109A70FB685A793B19033311001800FFF7D7
S31500001A20A5FE3B192F225A71FB68DB88642118003A
S31500001A3001F0C8F90B009BB2DAB23B19063311006C
S31500001A401800FFF793FE3B4B1B78002B07D0BA68B4
S31500001A503B19093311001800FFF7CEFE19E03723B2
S31500001A60FB1809221A700BE037203B181B7824223A
S31500001A70BA182D21D1543B181A783B1801321A7026
S31500001A803723FB181B780E2BEED92423FB1856227E
S31500001A90DA73FB689A7810243B1911001800FFF7D7
S31500001AA065FE21007B183A229A70FB685A780C0072
S31500001AB07B18033311001800FFF758FE21007B182E
S31500001AC03A225A71FB681A780C007B18063311000B
S31500001AD01800FFF74BFE21007B1841225A727B1833
S31500001AE04C229A727B184D22DA727B183A221A73AC
S31500001AF0FB1D1B78002B06D07B184F225A737B18D0
S31500001B004E229A7309E010217B184F225A737B18D4
S31500001B1046229A737B184622DA731023FA18242376
S31500001B20FB1811001800FFF740FFC046BD460FB076
S31500001B3090BDC046AAF0FF1F80B582B000AF02007C
S31500001B40FB1D1A70FB1D1B78002B01D0054B00E016
S31500001B50054B064A19001000FFF727FFC046BD4691
S31500001B6002B080BDF83000000C31000020310000CA
S31500001B7090B58DB000AF78601C243B191800FFF7B4
S31500001B8019FE0823FB181800FFF714FE21007B1826
S31500001B9056221A707B1862225A707B1875229A7028
S31500001BA07B187322DA702C4B1B78002B08D07B68CD
S31500001BB01A687B18083311001800FFF71DFE19E09C
S31500001BC02F23FB1808221A700BE02F203B181B78D6
S31500001BD01C22BA182D21D1543B181A783B18013211
S31500001BE01A702F23FB181B780D2BEED91C23FB181C
S31500001BF056229A7308217B1849221A707B18632291
S31500001C005A707B1868229A70134B1B78002B07D0EA
S31500001C107B689A687B180B211800FFF76EFE06E0BA
S31500001C2008217B182D229A727B182D22DA72082140
S31500001C307B186D221A737B1841225A737B182A224D
S31500001C40DA737A181C23FB1811001800FFF7ADFE93
S31500001C50C046BD460DB090BDAAF0FF1F90B58DB031
S31500001C6000AFF860B960FB1D1A700123BB62142334
S31500001C70FB181800FFF79EFD2F23FB1801221A7090
S31500001C800BE0BA6A13009B009B185B00BB622F2116
S31500001C907B181A787B1801321A702F217A18FB1DCF
S31500001CA012781B789A42ECD37B1800221A701FE038
S31500001CB0B96AB86801F000F803000A21180001F0BB
S31500001CC081F80B00DAB22F243B191B78043330322B
S31500001CD0D1B21422BA18D154BB6A0A21180000F0F6
S31500001CE0EBFF0300BB623B191A783B1901321A70ED
S31500001CF02F23FA18FB1D12781B789A42D8D3142387
S31500001D00FA18FB6811001800FFF74FFEC046BD46E3
S31500001D100DB090BDB0B58EB000AF3723FB180022D2
S31500001D201A7000233B632F23FB1800221A702E2300
S31500001D30FB1800221A702C23FB1800221A802B2372
S31500001D40FB1801221A702A23FB1800221A701F237F
S31500001D50FB1807221A701E23FB1800221A7029236B
S31500001D60FB1800221A7000237B6200233B62FFF7F8
S31500001D7087FBFEF735FC00F023FFFEF74BFFFEF76F
S31500001D8077FBFFF759FCFFF7ABFC6420FFF726FC57
S31500001D90D74B1800FFF7DCFBFFF7B9F908E0D54B86
S31500001DA01800FFF7D5FBFA239B001800FFF716FC77
S31500001DB0FFF79CF8031EF2D0CF4B1800FFF7C8FBC5
S31500001DC0FFF7C2F803001800FFF7E0FBCB4B180043
S31500001DD0FFF7BEFBFFF7C2F80120FFF759F9002114
S31500001DE00020FFF701F9C64B1800FFF73CF908E0A1
S31500001DF0C44B1800FFF7ACFBFA239B001800FFF753
S31500001E00EDFB00F06DFC031EF2D0BF4B1800FFF790
S31500001E109FFB00F07CFC00F0D4FD031E09D0BB4BF9
S31500001E201800FFF795FBBA4B180000F076FD00F09E
S31500001E30E2FDFEF761FE03001A00B64B1A70B54BC1
S31500001E401B78002B06D0FEF769FEB34B1800FFF790
S31500001E507FFB03E0B14B1800FFF77AFB1E23FB184C
S31500001E6019781F23FB181B780022180000F0E9FDE3
S31500001E70002000F01FFE00F060FE2E23FB1800225B
S31500001E801A70FFF7A3F800210020FFF7FFFBA44B11
S31500001E90A44A5A60A24B00229A60A14B05221A60FE
S31500001EA09F4B1A6880235B02134001D100F0CDFBE3
S31500001EB0FFF706FA9C4B1B78DBB2002B1FD03721AD
S31500001EC07B181B78072B1AD0974B00221A707B18A9
S31500001ED007221A702A23FB1801221A70934B1988BD
S31500001EE0934B01221800FFF7AFF900210120FFF7FD
S31500001EF0CDFB904A904B11001800FFF756FD7B6A08
S31500001F0001337B627B6A132B00DCF6E200237B62E3
S31500001F101D257C19FEF7C4FE030023707B191B7870
S31500001F20002B00D1E3E22923FB181B78002B00D0FD
S31500001F30DDE23723FB181B78072B00D9BBE29A009A
S31500001F407E4BD3181B689F461D23FB181B78232B3B
S31500001F5000D0B2E2FFF7A8F92A23FB181B78012B61
S31500001F6001D100F0EAFD2A23FB1800221A70002195
S31500001F700020FFF78BFB3723FB1800221A70FFF7B0
S31500001F8025F89AE21D23FB181B78412B00D096E218
S31500001F903723FB1801221A7001210020FFF776FB78
S31500001FA02E23FB181B781800FFF7C6FD87E21D23BA
S31500001FB0FB181B78312B10D13723FB1802221A701D
S31500001FC000233B632F23FB1800221A705C4B06226A
S31500001FD000211800FFF742FE73E21D23FB181B7851
S31500001FE0322B10D13723FB1803221A7000233B63D0
S31500001FF02F23FB1800221A70524B062200211800CC
S31500002000FFF72CFE5DE21D23FB181B78332B10D146
S315000020103723FB1804221A7000233B632F23FB1877
S3150000202000221A70484B042200211800FFF716FE02
S3150000203047E21D23FB181B78342B15D12E217B1864
S315000020401B785A425341DAB27B181A700C007B187F
S315000020501B78180000F02EFD00F06FFD3B191B7871
S315000020601800FFF769FD2CE21D23FB181B78352BA2
S3150000207006D13723FB1805221A70FEF7A7FF20E2C8
S315000020801D23FB181B78362B10D13723FB1806228D
S315000020901A7000233B632F23FB1800221A702B4B68
S315000020A0042200211800FFF7D9FD0AE21D23FB18C0
S315000020B01B782A2B00D004E23723FB1800221A7063
S315000020C000210020FFF7E2FAFEF780FFF9E11D2369
S315000020D0FB181B782A2B00D0F5E13723FB180122C9
S315000020E01A702E23FB181B781800FFF725FDEAE16E
S315000020F034310000583100006C310000803100009E
S315000021008431000094310000AC310000C031000081
S31500002110EC300000AAF0FF1F003200001C32000065
S3150000212010E000E0E9510000A9F0FF1FE8300000D0
S31500002130B82F00004032000054320000F432000094
S31500002140683200007C32000090320000A4320000A9
S315000021501D217B181B782F2B1FD97B181B78392B39
S315000021601BD82F203B181B78032B45D83A6B13003E
S315000021709B009B185B001A007B181B78D318303B1A
S315000021803B633B181A783B1801321A70396BD24BF5
S3150000219004221800FFF762FD2EE01D23FB181B78B2
S315000021A02A2B0AD13723FB1801221A702E23FB187B
S315000021B01B781800FFF7C0FC87E11D23FB181B786E
S315000021C0232B00D081E12F23FB181B78042B00D092
S315000021D07BE12C23FB183A6B1A802B23FB18012278
S315000021E01A703723FB1801221A702E23FB181B784E
S315000021F01800FFF7A1FC68E167E11D217B181B7839
S315000022002F2B1FD97B181B78392B1BD82F203B1857
S315000022101B78052B68D83A6B13009B009B185B0054
S315000022201A007B181B78D318303B3B633B181A788F
S315000022303B1801321A70396BA84B06221800FFF7BB
S315000022400DFD51E01D23FB181B782A2B0AD13723DD
S31500002250FB1801221A702E23FB181B781800FFF7B3
S315000022606BFC34E11D23FB181B78232B00D02EE1D9
S315000022702F23FB181B78062B00D028E10C243B19D2
S31500002280180000F0A7FA031E23D13B6B94491800EF
S3150000229000F012FD0300DAB23B199A703B6B642121
S315000022A0180000F009FD03006421180000F08AFD03
S315000022B00B00DAB23B195A703B6B6421180000F030
S315000022C081FD0B00DAB23B191A703B19180000F0B9
S315000022D024FB3723FB1801221A702E23FB181B78C8
S315000022E01800FFF729FCF2E0F1E01D217B181B78AE
S315000022F02F2B1FD97B181B78392B1BD82F203B1867
S315000023001B78052B6DD83A6B13009B009B185B005E
S315000023101A007B181B78D318303B3B633B181A789E
S315000023203B1801321A70396B6E4B06221800FFF704
S3150000233095FC56E01D23FB181B782A2B0AD1372360
S31500002340FB1801221A702E23FB181B781800FFF7C2
S31500002350F3FBBEE01D23FB181B78232B00D0B8E04F
S315000023602F23FB181B78062B00D0B2E00C243B1958
S31500002370180000F02FFA031E28D13B6B58491800AD
S3150000238000F09AFC0300DAB23B191A713B6B642128
S31500002390180000F091FC03006421180000F012FD03
S315000023A00B00DAB23B195A713B6B6421180000F03E
S315000023B009FD0B009BB2FA22D200944663449AB2FE
S315000023C03B19DA803B19180000F0A7FA3723FB18EF
S315000023D001221A702E23FB181B781800FFF7ACFB9E
S315000023E077E076E01D217B181B782F2B1FD97B18F1
S315000023F01B78392B1BD82F203B181B78032B59D859
S315000024003A6B13009B009B185B001A007B181B7825
S31500002410D318303B3B633B181A783B1801321A70CD
S31500002420396B314B04221800FFF718FC42E01D23DC
S31500002430FB181B782A2B0AD13723FB1801221A70A6
S315000024402E23FB181B781800FFF776FB4EE01D23A2
S31500002450FB181B78232B49D12F23FB181B78042B41
S3150000246044D13B6B6421180000F026FC03001A00DF
S315000024701F243B191A703B6B6421180000F0A2FC64
S315000024800B001A001E217B181A707B1819783B194D
S315000024901B780022180000F0D4FA00F04EFB372318
S315000024A0FB1801221A702E23FB181B781800FFF761
S315000024B043FB1BE01AE0C04619E0C04617E0C046E1
S315000024C015E0C04613E0C04611E0C0460FE0C04626
S315000024D00DE0C0460BE0C046A432000068320000A2
S315000024E0102700007C32000090320000C0462923ED
S315000024F0FB181D22BA1812781A703B6A01333B6228
S315000025003A6AFA235B009A4200DAC9E400233B6286
S315000025103723FB181B78052B12D13B0000221A60CB
S315000025203B0000229A604B4B1B78002B04D03B00EB
S3150000253019000320FEF700FB3B001800FFF718FB0D
S315000025403723FB181B78002B00D0A9E41423FB18B3
S31500002550180000F03FF9031E00D06FE03B00002298
S315000025601A603B0000229A603A4B1B78002B04D07D
S315000025703B0019000320FEF7DFFA364B1B78002BD1
S3150000258043D02C217B181B88002B3ED02B203B18D8
S315000025901B78002B22D03B009A687B181B889A4236
S315000025A01CDD3B1800221A703723FB1807221A700D
S315000025B02A23FB1802221A70274B1988274B01225F
S315000025C01800FEF741FE00210120FFF75FF8244ABC
S315000025D0244B11001800FFF7E8F916E02B257B19AC
S315000025E01B78002B11D13B009C682C23FB181A8802
S315000025F01300DB009B180A21180000F05DFB0300A6
S315000026009C4202DA7B1901221A703723FB181B78C9
S31500002610002B1CD13B0019682E23FB181A781424B2
S315000026203B191800FFF7DAF921007B189A787B1816
S315000026305B7819001000FEF783FD31E40A4A0B4B64
S3150000264011001800FFF7B1F92AE4C04628E4C04695
S3150000265026E4C046AAF0FF1FE8300000B82F0000AD
S3150000266040320000B8320000CC320000E0320000F8
S3150000267080B582B000AF0200FB1D1A70FB1D1B78EF
S315000026801B09DBB21A1C9200D318DB18DAB2FB1D49
S315000026901B780F210B40DBB2D318DBB21800BD4606
S315000026A002B080BD90B583B000AF0200FB1D1A706A
S315000026B0FB1D1B780A21180000F0FEFA0300DBB2AE
S315000026C01B01DCB2FB1D1B780A21180000F07AFB07
S315000026D00B00DBB22343DBB21800BD4603B090BD4E
S315000026E080B584B002AF00233B60FA1D3B00009327
S315000026F0130001220E216820FEF764F8031E01D1A3
S31500002700012300E000231800BD4602B080BDB0B52D
S3150000271086B002AF00233B601C220E216820FEF724
S315000027207AF90300BB60BB68002B01D0BB684DE0A3
S31500002730FA1D3B0000931300012202216820FEF7D8
S3150000274041F80300BB60BB68002B01D0BB683DE0CD
S31500002750FB1D1B781A004023134036D0FB1D1B7847
S315000027601F221340DBB20F257C191800FFF780FFEC
S3150000277003002370FB1D1B781A002023134009D089
S315000027807B191B780C2B0DD07B197A1912780C3219
S315000027901A7007E00F22BB181B780C2B02D1BB184E
S315000027A000221A700F23FB181B781800FFF77AFF18
S315000027B003001A0002216820FEF72DF90300BB6012
S315000027C0BB68002B01D0BB6800E000231800BD46A3
S315000027D004B0B0BDF0B58BB002AF78600023FB60EB
S315000027E01023FA180C23FB1800931300072200216C
S315000027F06820FDF7E7FF0300BB61BB69002B01D032
S31500002800BB6986E010243B191B787F221340DBB29C
S315000028101800FFF72DFF03001A007B681A703B199A
S315000028205B787F221340DBB21800FFF721FF03001D
S315000028301A007B685A7017257B193A1992781A7014
S315000028407B191B784022134028D07B191B781F2246
S315000028501340DBB21F26BC191800FFF709FF03005F
S3150000286023707B191B782022134009D0BB191B78D3
S315000028700C2B0DD0BB19BA1912780C321A7007E05E
S315000028801F22BB181B780C2B02D1BB1800221A7012
S315000028907B681F22BA1812789A700CE01723FB186F
S315000028A01B783F221340DBB21800FFF7E1FE03005E
S315000028B01A007B689A7010243B19DB7807221340B4
S315000028C0DAB27B68DA703B191B793F221340DBB220
S315000028D01800FFF7CDFE03001A007B681A713B193A
S315000028E05B791F221340DBB21800FFF7C1FE03001D
S315000028F01A007B685A713B199B791800FFF7B8FEDE
S315000029000300FA22D200944663449AB27B68DA80C6
S3150000291000231800BD4609B0F0BD90B585B000AFE4
S3150000292078607B681B781800FFF7BCFE03001A006E
S3150000293008243B191A707B685B781800FFF7B2FE13
S3150000294003001A003B195A707B689B781800FFF742
S31500002950A9FE03001A003B199A707B68DB780722F0
S315000029601340DAB23B19DA707B681B791800FFF75F
S3150000297099FE03001A003B191A717B685B791800EF
S31500002980FFF790FE03001A003B195A717B68DB883B
S315000029906421180000F016FA0B009BB2DBB2180097
S315000029A0FFF780FE03001A003B199A713B190722B4
S315000029B000216820FDF7A8FF03001800BD4605B0FA
S315000029C090BD80B584B002AF00233B60FA1D3B008A
S315000029D00093130001220F216820FDF7F3FE031E6A
S315000029E001D0012303E0FB1D1B78DB09DBB21800D5
S315000029F0BD4602B080BD80B586B002AF00237B60C5
S31500002A000B23FA183B1D0093130001220F216820A7
S31500002A10FDF7D8FE0300FB60FB68002B01D0FB68C6
S31500002A200BE00B23FB181B787F221340DBB21A0046
S31500002A300F216820FDF7EFFF03001800BD4604B024
S31500002A4080BD90B585B000AF040008001100FB1DE5
S31500002A50221C1A70BB1D021C1A707B1D0A1C1A70E0
S31500002A607B1D1B781800FFF71DFE03001A000C24BF
S31500002A703B191A70BB1D1B781800FFF713FE0300E5
S31500002A801A003B195A70FB1D1B781800FFF70AFE47
S31500002A9003001A003B199A703B198022DA703B1921
S31500002AA0042207216820FDF72FFF03001800BD460A
S31500002AB005B090BD80B588B002AF0200FB1D1A704C
S31500002AC00023FB601323FA180C23FB180093130052
S31500002AD001220E216820FDF775FE03007B617B69EC
S31500002AE0002B01D07B6924E013217B181B7804227C
S31500002AF01343DAB27B181A70FB1D1B78002B07D024
S31500002B007B181B7801221343DAB27B181A7007E090
S31500002B1013217B181B7801229343DAB27B181A70B3
S31500002B201323FB181B781A000E216820FDF773FF8C
S31500002B3003001800BD4606B080BD80B586B002AF62
S31500002B4000237B600B23FA183B1D00931300012220
S31500002B500F216820FDF736FE0300FB60FB68002BA3
S31500002B6001D0FB680BE00B23FB181B780122934373
S31500002B70DBB21A000F216820FDF74DFF0300180095
S31500002B80BD4604B080BDFFFF04207146084202D056
S31500002B90EFF3098001E0EFF3088081690A88074BAB
S31500002BA09A4200D0FEE7023181610168012901D015
S31500002BB0002100E0202101607047C046ABBE000046
S31500002BC080B500AF1B4A1C4BD3581A4980225201CC
S31500002BD01343194A8B50194B802292005A60174BA7
S31500002BE0802292009A60154B802252001A60144B84
S31500002BF05A69134B01210A435A61114B01225A604B
S31500002C000C4A104BD3580B498022D20313430D4A6A
S31500002C108B500D4B1C221A700B4B60229A700A4B7C
S31500002C201B78DBB2084A40210B43DBB21370C04667
S31500002C30BD4680BD007004403810000000C004404E
S31500002C40C0F00F40341000000060074080B582B02D
S31500002C5000AF0200FB1D1A70C0460C4BDB78DBB2DE
S31500002C601A0020231340F8D0084AFB1D1B78537125
S31500002C70C046064BDB78DBB25BB2002BF9DA034BBE
S31500002C805B79DBB21800BD4602B080BD006007402C
S31500002C9080B500AF024B01229A60C046BD4680BD9A
S31500002CA0C0F00F4080B500AF024B01225A60C0460B
S31500002CB0BD4680BDC0F00F40002243088B4274D34E
S31500002CC003098B425FD3030A8B4244D3030B8B4227
S31500002CD028D3030C8B420DD3FF22090212BA030C30
S31500002CE08B4202D31212090265D0030B8B4219D311
S31500002CF000E0090AC30B8B4201D3CB03C01A524131
S31500002D00830B8B4201D38B03C01A5241430B8B4278
S31500002D1001D34B03C01A5241030B8B4201D30B0361
S31500002D20C01A5241C30A8B4201D3CB02C01A524188
S31500002D30830A8B4201D38B02C01A5241430A8B424B
S31500002D4001D34B02C01A5241030A8B4201D30B0234
S31500002D50C01A5241CDD2C3098B4201D3CB01C01A4E
S31500002D60524183098B4201D38B01C01A5241430958
S31500002D708B4201D34B01C01A524103098B4201D346
S31500002D800B01C01A5241C3088B4201D3CB00C01AB3
S31500002D90524183088B4201D38B00C01A524143082B
S31500002DA08B4201D34B00C01A5241411A00D2014650
S31500002DB0524110467047FFE701B5002000F0F0F8D9
S31500002DC002BDC0460029F7D076E7704703460B439D
S31500002DD07FD4002243088B4274D303098B425FD30E
S31500002DE0030A8B4244D3030B8B4228D3030C8B423A
S31500002DF00DD3FF22090212BA030C8B4202D3121220
S31500002E00090265D0030B8B4219D300E0090AC30BF4
S31500002E108B4201D3CB03C01A5241830B8B4201D3A1
S31500002E208B03C01A5241430B8B4201D34B03C01A8A
S31500002E305241030B8B4201D30B03C01A5241C30A02
S31500002E408B4201D3CB02C01A5241830A8B4201D373
S31500002E508B02C01A5241430A8B4201D34B02C01A5D
S31500002E605241030A8B4201D30B02C01A5241CDD202
S31500002E70C3098B4201D3CB01C01A524183098B424D
S31500002E8001D38B01C01A524143098B4201D34B0136
S31500002E90C01A524103098B4201D30B01C01A524199
S31500002EA0C3088B4201D3CB00C01A524183088B4220
S31500002EB001D38B00C01A524143088B4201D34B0009
S31500002EC0C01A5241411A00D201465241104670477B
S31500002ED05DE0CA0F00D04942031000D34042534080
S31500002EE000229C4603098B422DD3030A8B4212D340
S31500002EF0FC22890112BA030A8B420CD38901921172
S31500002F008B4208D3890192118B4204D389013AD0AE
S31500002F10921100E08909C3098B4201D3CB01C01A83
S31500002F20524183098B4201D38B01C01A5241430996
S31500002F308B4201D34B01C01A524103098B4201D384
S31500002F400B01C01A5241C3088B4201D3CB00C01AF1
S31500002F50524183088B4201D38B00C01A5241D9D209
S31500002F6043088B4201D34B00C01A5241411A00D28A
S31500002F700146634652415B10104601D34042002B86
S31500002F8000D54942704763465B1000D3404201B505
S31500002F90002000F005F802BD0029F8D016E77047BA
S31500002FA07047C046313233413435364237383943BB
S31500002FB02A3023440040FFFF4A012C01B8012C01AE
S31500002FC0B8012C012A022C012A022C01B801580250
S31500002FD04A012C014A012C014A01C2014A0196000C
S31500002FE0EE019600B80196009F01960072019600C8
S31500002FF04A0184034A012C01B8012C01B8012C01B5
S315000030002A022C012A022C01B80158024A012C017D
S31500003010B8012C019F012C01720196009F019600B8
S31500003020B8012C0137012C014A0184034A012C0105
S315000030309F012C019F012C01B80196009F0196006B
S31500003040720196009F019600B80158024A012C01B0
S31500003050B8012C019F012C019F012C019F019600B4
S3150000306093029600EE0196009F019600B801840334
S31500003070B8012C0172012C0172012C0172012C0184
S31500003080B8012C01B80158024A012C014A012C0151
S315000030904A01C2014A019600EE012C019F012C0152
S315000030A0B8018403B8012C019F01960072019600B5
S315000030B072012C0172019600B80196009F019600DC
S315000030C0EE019600B80158024A012C014A012C0172
S315000030D04A01C2014A019600EE012C019F012C0112
S315000030E0B801840300002C014C00FFFF0D170D03EF
S315000030F01E09EA073078000034204F4E2035494E2D
S31500003100412036496D61782A00000000344F46465A
S315000031102035494E412036496D61782A000000006D
S3150000312031486F72612032466563682033416C6DA9
S31500003130000000000A0A3D3D3D2045737461636945
S315000031406F6E206465206D6F6E69746F72656F2097
S315000031503D3D3D0A000000004C4344206E6F206553
S315000031606E636F6E747261646F0A00004C43442094
S31500003170656E636F6E747261646F20656E20000009
S315000031800A00000042757363616E646F20525443F7
S315000031902E2E2E00445333323331206E6F20656E4F
S315000031A0636F6E747261646F0A00000044533332B9
S315000031B0333120656E636F6E747261646F0A00004E
S315000031C0415649534F3A20656C20445333323331CC
S315000031D02070657264696F206C6120686F72612E61
S315000031E02043617267616E646F20686F7261207040
S315000031F06F72206465666563746F2E0A00000000B6
S31500003200494E413332323120656E636F6E7472619E
S31500003210646F20656E20307834300A004156495379
S315000032204F3A20494E4133323231206E6F2072655B
S3150000323073706F6E646520656E20307834300A00D6
S3150000324023207061726120617061676172202020A5
S31500003250000000002A2A2A20414C41524D41202AD2
S315000032602A2A20200000000053455420484F52418E
S31500003270202048484D4D535300000000534554202C
S3150000328046454348412044444D4D4141000000001D
S3150000329053455420414C41524D412048484D4D2004
S315000032A00000000053455420496D617820656E206A
S315000032B06D41202000000000534F425245434F52BB
S315000032C05249454E544520210000000052544320E7
S315000032D02020202020202020202020200000000068
S315000032E04572726F72206C6563747572612020205E
S315000032F000FFFFFF841F0000AE1F0000FA21000040
S31500003300EA220000E4230000CE2000005021000045
S31500003310481F0000303132333435363738394142B0
S309000033204344454691
S30900003324F8B5C046EC
S30900003328F8B5C046E8
S3090000332C2708FFFF6A
S705000000F901
